:02000000FC2BD7
:1006EA0083128E0001308C000E0A7D2B03108C0DB4
:1006FA00FF3E031D7B2B0C080505031D852B862B4E
:10070A00AC2B04308D003D308C008C0B8A2B8D0B6A
:10071A008A2B8F2B013083128C000E0A962B031022
:10072A008C0DFF3E031D942B0C08050503199E2B07
:10073A009F2B8F2B04308D003D308C008C0BA32B0C
:10074A008D0BA32BA82B831286120130AD2B003000
:10075A000800CF30831686008312061686160130EB
:10076A008F00003085180130013EBD2B03108F0D1C
:10077A00FF3E031DBB2B01309000003005180130ED
:10078A00013EC92B0310900DFF3E031DC72B100815
:10079A000F04910011088316850483121208031DA1
:1007AA00D72BD82BD22B0030051801307523831292
:1007BA0092001208031DE22BE32BE92B0030851867
:1007CA00013075238312920012080319ED2BEE2BC8
:1007DA00D22B831681110108FE3907388100811254
:1007EA00A0308B000A3083128100D22B002883129A
:0607FA0092018301AE2B09
:08400000FF3FFF3FFF3FFF3FC0
:02400E00FF3F72
:00000001FF
