:020000000B28CB
:10000800CE00030E83128C000A088D0097280C2856
:100018008312930183011028CF3083168600831240
:100028000616861601309000003085180130013E12
:100038001F280310900DFF3E031D1D28013091005D
:10004800003005180130013E2B280310910DFF3EAA
:10005800031D29281108100492001208831685042C
:1000680083121308031D39283A28342801309000D8
:1000780000308B1B0130013E43280310900DFF3EDA
:10008800031D41281008FF3A910011088B05003024
:10009800051801308120831293001308031D552889
:1000A80056285C280030851801308120831293007F
:1000B8000130900000308B1B0130013E6528031091
:1000C800900DFF3E031D63281008910011088B0452
:1000D80013080319702871283428831681110730F2
:1000E800831290001008831681048112A0308B00BF
:1000F8000B308312810034280B2883128F000130C3
:100108008E000F0A892803108E0DFF3E031D8728D5
:100118000E080505031D912892289528861201309E
:10012800962800300800130803199B289C28A0284B
:1001380010308606203086060B110B3081000D0822
:0C0148008A000C0E8300CE0E4E0E090043
:08400000FF3FFF3FFF3FFF3FC0
:02400E00FF3F72
:00000001FF
