:020000000B28CB
:10000800CE00030E83128C000A088D006F280C287E
:1000180083010E28CF3083168600831206168616B3
:1000280001308E00003085180130013E1D28031074
:100038008E0DFF3E031D1B2801308F000030051870
:100048000130013E292803108F0DFF3E031D27288C
:100058000F080E049000100883168504811101080A
:10006800FE39073881008112013083128E0000307A
:1000780005180130013E422803108E0DFF3E031D76
:1000880040280E080505031D4A284B2838280A3041
:100098008F00BC308E008E0B4F288F0B4F2800002E
:1000A800013083128E00003005180130013E5E28B1
:1000B80003108E0DFF3E031D5C280E080505031D69
:1000C80066286728382810308606A0308B000C3048
:1000D800810038280B2810308606203086060B1140
:1000E8000C3081000D088A000C0E8300CE0E4E0ED7
:0200F8000900FD
:08400000FF3FFF3FFF3FFF3FC0
:02400E00FF3F72
:00000001FF
