:02000000FE2BD5
:1006F20083128E0001308C000E0A812B03108C0DA8
:10070200FF3E031D7F2B0C080505031D892B8A2B39
:10071200B02B04308D003D308C008C0B8E2B8D0B5A
:100722008E2B932B013083128C000E0A9A2B03100E
:100732008C0DFF3E031D982B0C0805050319A22BF7
:10074200A32B932B04308D003D308C008C0BA72BF8
:100752008D0BA72BAC2B831286120130B12B0030EC
:100762000800CF30831686008312061686160130E3
:100772008F00003085180130013EC12B03108F0D10
:10078200FF3E031DBF2B01309000003005180130E1
:10079200013ECD2B0310900DFF3E031DCB2B100805
:1007A2000F04910011088316850400308312051886
:1007B20001307923831292001208031DE12BE22BF0
:1007C200F62B003085180130792383129200F62B24
:1007D20010308606203086065230900029308F0075
:1007E2008F0BF12B900BF12BF62B83121208031DAA
:0E07F200FB2BFC2BE92BD62B00288301B22B0E
:08400000FF3FFF3FFF3FFF3FC0
:02400E00FF3F72
:00000001FF
